:100000000C942A000C943F000C943F000C943F0089
:100010000C943F000C943F000C943F000C943F0064
:100020000C943F000C943F000C943F000C943F0054
:100030000C943F000C943F000C943F000C943F0044
:100040000C943F000C943F000C943F000C943F0034
:100050000C943F0011241FBECFE5D4E0DEBFCDBF1E
:1000600012E0A0E6B0E0ECEFF8E302C005900D92DC
:10007000A83FB107D9F70E9430130C947C1C0C9454
:100080000000EF92FF920F931F937B018C0120E001
:1000900030E040E05FE40E94410388238CF0C80117
:1000A000B70120E030E040E05FE40E94B9010E9427
:1000B000A1039B01AC01205030404040504806C095
:1000C000C801B7010E94A1039B01AC01B901CA019B
:1000D0001F910F91FF90EF900895A0E0B0E0E3E74B
:1000E000F0E00C94451CDC012B01FA019C9192304C
:1000F00008F439C1EB018881823008F433C19430AF
:1001000069F4843009F02FC111969C91119789816F
:10011000981709F428C1AEEBB2E025C1843009F488
:1001200021C18230A9F4923009F01DC19A01AD01BC
:1001300088E0EA010990AE01E90109929E0181502F
:10014000C1F7E201898111969C918923818308C1BD
:10015000923009F407C112962D903C901397EB0151
:100160008A819B811496AD90BD90CD90DC901797BD
:10017000EC80FD800E811F819101281B390BB90194
:1001800037FF04C066277727621B730B6032710547
:100190000CF061C0121613066CF537014801062EEB
:1001A00004C096948794779467940A94D2F721E0D8
:1001B00030E040E050E004C0220F331F441F551FC1
:1001C0006A95D2F721503040404050402E213F21C7
:1001D00040235123211531054105510521F021E02E
:1001E00030E040E050E079018A01E628F72808294C
:1001F00019293CC0232BD1F1260E371E35014601AB
:10020000062E04C096948794779467940A94D2F744
:1002100021E030E040E050E004C0220F331F441FD3
:10022000551F6A95D2F721503040404050402A2156
:100230003B214C215D21211531054105510521F05E
:1002400021E030E040E050E059016A01A628B728DB
:10025000C828D9280BC0821593052CF01C01AA24AC
:10026000BB24650103C0EE24FF24870111969C91F5
:10027000D20111968C91981709F445C0992339F051
:10028000A80197012A193B094C095D0906C0A6017E
:1002900095012E193F09400B510B57FD08C01182E3
:1002A0003382228224833583468357831DC081E0B5
:1002B00081833382228288279927DC01821B930B5A
:1002C000A40BB50B84839583A683B7830DC0220F3F
:1002D000331F441F551F24833583468357838281F0
:1002E000938101979383828324813581468157814D
:1002F000DA01C9010197A109B1098F5F9F4FAF4F83
:10030000BF4328F30BC0918333822282EA0CFB1C8B
:100310000C1D1D1DE482F5820683178383E0808314
:10032000248135814681578157FF1AC0C901AA2708
:1003300097FDA095BA2F81709070A070B0705695FF
:10034000479537952795822B932BA42BB52B848328
:100350009583A683B7838281938101969383828359
:10036000DF0101C0D201CD01CDB7DEB7E2E10C94CF
:10037000611CA0E2B0E0EFEBF1E00C94511C69834A
:100380007A838B839C832D833E834F835887E9E058
:10039000EE2EF12CEC0EFD1ECE010196B7010E944F
:1003A000CA048E010F5E1F4FCE010596B8010E9450
:1003B000CA048A8991E089278A8BC701B801AE01F6
:1003C000475E5F4F0E946D000E94F503A096E6E035
:1003D0000C946D1CA0E2B0E0E0EFF1E00C94511C35
:1003E00069837A838B839C832D833E834F835887D5
:1003F000F9E0EF2EF12CEC0EFD1ECE010196B701B7
:100400000E94CA048E010F5E1F4FCE010596B801EF
:100410000E94CA04C701B801AE01475E5F4F0E9447
:100420006D000E94F503A096E6E00C946D1CA0E21E
:10043000B0E0EDE1F2E00C94451C69837A838B8394
:100440009C832D833E834F835887CE010196BE0146
:10045000675F7F4F0E94CA04CE010596BE016F5EA2
:100460007F4F0E94CA049985923088F08989823032
:10047000C8F0943019F4823051F404C0843029F467
:10048000923081F48EEB92E0C6C0923049F420E0C5
:100490009A858A89981321E02A87CE010996BBC0E4
:1004A000823049F420E09A858A89981321E02A8BCA
:1004B000CE014196B0C02D843E844F8458886D880B
:1004C0007E888F88988CEE24FF248701AA24BB2481
:1004D000650140E050E060E070E0E0E0F0E0C10184
:1004E00081709070892BE9F0E60CF71C081D191D2E
:1004F0009A01AB012A0D3B1D4C1D5D1D80E090E073
:10050000A0E0B0E0E614F7040805190520F481E046
:1005100090E0A0E0B0E0BA01A901480F591F6A1F9E
:100520007B1FAA0CBB1CCC1CDD1C97FE08C081E005
:1005300090E0A0E0B0E0A82AB92ACA2ADB2A3196C6
:10054000E032F10549F0660C771C881C991C569422
:10055000479437942794C3CFFA85EA892B893C893D
:100560008B859C85280F391F2E5F3F4F17C0CA010E
:1005700081709070892B61F016950795F794E79438
:1005800080E090E0A0E0B0E8E82AF92A0A2B1B2BD3
:1005900076956795579547952F5F3F4F77FDE7CF46
:1005A0000CC0440F551F661F771F17FD4160EE0CEE
:1005B000FF1C001F111F21503040403090E05907B0
:1005C00090E0690790E4790760F32B8F3C8FDB01A3
:1005D000CA018F779070A070B07080349105A1052A
:1005E000B10561F447FD0AC0E114F10401051105EC
:1005F00029F0405C5F4F6F4F7F4F40781A8EFE1797
:1006000011F081E08A8F4D8F5E8F6F8F78A383E02A
:10061000898FCE0149960E94F503A096E2E10C94E1
:10062000611CA8E1B0E0E7E1F3E00C94511C6983A0
:100630007A838B839C832D833E834F83588789E005
:10064000E82EF12CEC0EFD1ECE010196B7010E94A2
:10065000CA048E010F5E1F4FCE010596B8010E949D
:10066000CA048985823040F08989823028F0C70128
:10067000B8010E94420501C08FEF6896E6E00C9435
:100680006D1CA8E1B0E0E7E4F3E00C94511C698331
:100690007A838B839C832D833E834F83588789E0A5
:1006A000E82EF12CEC0EFD1ECE010196B7010E9442
:1006B000CA048E010F5E1F4FCE010596B8010E943D
:1006C000CA048985823040F08989823028F0C701C8
:1006D000B8010E94420501C08FEF6896E6E00C94D5
:1006E0006D1CA8E1B0E0E7E7F3E00C94511C6983CE
:1006F0007A838B839C832D833E834F83588789E045
:10070000E82EF12CEC0EFD1ECE010196B7010E94E1
:10071000CA048E010F5E1F4FCE010596B8010E94DC
:10072000CA048985823040F08989823028F0C70167
:10073000B8010E94420501C081E06896E6E00C9491
:100740006D1CACE0B0E0E7EAF3E00C94551C698363
:100750007A838B839C83CE010196BE016B5F7F4FB2
:100760000E94CA048D81823061F1823050F1843060
:1007700021F48E81882351F12EC02F81388537FDD9
:1007800020C06E812F3131051CF06623F9F023C0A3
:100790008EE190E0821B930B29853A854B855C8521
:1007A00004C056954795379527958A95D2F76623C5
:1007B000B1F050954095309521953F4F4F4F5F4F89
:1007C0000EC020E030E040E050E009C02FEF3FEFE6
:1007D0004FEF5FE704C020E030E040E050E8B901AF
:1007E000CA012C96E2E00C94711CDF92EF92FF920A
:1007F0000F931F93FC01E480F58006811781D1805F
:100800008081823048F480E090E0A0E1B0E0E82A06
:10081000F92A0A2B1B2BA5C0843009F49FC0823013
:1008200021F4EE24FF24870105C0E114F104010541
:10083000110519F4E0E0F0E096C0628173819FEF4A
:10084000623879070CF05BC022E83FEF261B370BBC
:100850002A3131052CF020E030E040E050E02AC0A1
:10086000B801A701022E04C0769567955795479564
:100870000A94D2F781E090E0A0E0B0E004C0880FD5
:10088000991FAA1FBB1F2A95D2F70197A109B10989
:100890008E219F21A023B1230097A105B10521F04E
:1008A00081E090E0A0E0B0E09A01AB01282B392B69
:1008B0004A2B5B2BDA01C9018F779070A070B07062
:1008C00080349105A105B10539F427FF09C0205CEA
:1008D0003F4F4F4F5F4F04C0215C3F4F4F4F5F4F23
:1008E000E0E0F0E02030A0E03A07A0E04A07A0E412
:1008F0005A0710F0E1E0F0E079018A0127C0603882
:10090000710564F5FB01E158FF4FD801C7018F77EE
:100910009070A070B07080349105A105B10539F4D4
:10092000E7FE0DC080E490E0A0E0B0E004C08FE3FB
:1009300090E0A0E0B0E0E80EF91E0A1F1B1F17FFB1
:1009400005C016950795F794E794319687E01695BC
:100950000795F794E7948A95D1F705C0EE24FF2414
:100960008701EFEFF0E06E2F679566276795902F70
:100970009F77D794DD24D7948E2F8695492F462BC9
:10098000582F5D29B701CA011F910F91FF90EF9079
:10099000DF900895FC01DB01408151812281622FAB
:1009A0006F7770E0221F2227221F9381892F880FE3
:1009B000822B282F30E0991F9927991F11969C931D
:1009C000119721153105A9F54115510561057105ED
:1009D00011F482E037C082E89FEF13969C938E93C8
:1009E00012979A01AB0167E0220F331F441F551F76
:1009F0006A95D1F783E08C930DC0220F331F441FFB
:100A0000551F12968D919C911397019713969C9365
:100A10008E931297203080E0380780E0480780E40A
:100A2000580758F314962D933D934D935C93179765
:100A300008952F3F310579F4411551056105710580
:100A400019F484E08C93089564FF03C081E08C93D3
:100A500012C01C9210C02F57304013963C932E9317
:100A6000129783E08C9387E0440F551F661F771F12
:100A70008A95D1F7706414964D935D936D937C9332
:100A8000179708951F93DC01FB019C91923008F4A5
:100A900047C08081823008F443C0943051F41196ED
:100AA0001C91843099F58181682F70E0611B710978
:100AB0003FC0843021F0923031F48230B9F181812D
:100AC000882389F12DC011961C9111978230F1F085
:100AD00081811817D9F412962D913C911397828138
:100AE00093818217930794F028173907BCF0149666
:100AF0008D919D910D90BC91A02D248135814681D1
:100B00005781281739074A075B0718F4112341F06A
:100B10000AC082179307A407B50740F4112319F000
:100B200061E070E005C06FEF7FEF02C060E070E051
:100B3000CB011F9108950F931F93DF93CF93CDB7F0
:100B4000DEB7C654D0400FB6F894DEBF0FBECDBF9F
:100B5000FE01ED5BFF4F80E090E0A4E3B2E4808310
:100B60009183A283B3838E01015C1F4FFE01ED5B75
:100B7000FF4F608171818281938120E030E04AE7FC
:100B800053E40E941702DC01CB01F80180839183BA
:100B9000A283B383FE01FF9660817181828193817C
:100BA00020E030E040E85FE30E94710388232CF4EA
:100BB00081E090E09EAF8DAF46C0FE01FF96608160
:100BC00071818281938120E03FEF4FE757E40E94DB
:100BD0001103181664F5FE01ED5BFF4F6081718112
:100BE0008281938120E030E040E251E40E941702CC
:100BF000DC01CB01BC01CD010E944100DC01CB0135
:100C00009EAF8DAF0FC089E190E09CAF8BAF8BADF5
:100C10009CAD0197F1F79CAF8BAF8DAD9EAD019769
:100C20009EAF8DAF8DAD9EAD009769F716C0FE01EA
:100C3000FF9660817181828193810E944100DC0175
:100C4000CB019EAF8DAF8DAD9EAD9AAF89AF89AD13
:100C50009AAD0197F1F79AAF89AF81E06FEF0E94EB
:100C6000EC0B82E064E041E00E94010D82E063E071
:100C700041E00E94010D82E062E041E00E94010D2E
:100C800082E00E94B80880E090E0A0E8BFE38DAB6E
:100C90009EABAFABB8AF6DA97EA98FA998AD20E090
:100CA00030E04AE753E40E941702DC01CB0189AB34
:100CB0009AABABABBCAB69A97AA98BA99CA920E084
:100CC00030E040E85FE30E94710388232CF481E068
:100CD00090E098AB8FA73FC069A97AA98BA99CA97E
:100CE00020E03FEF4FE757E40E94110318164CF540
:100CF0006DA97EA98FA998AD20E030E040E251E4D3
:100D00000E941702DC01CB01BC01CD010E94410011
:100D1000DC01CB0198AB8FA70FC089E190E09EA7C3
:100D20008DA78DA59EA50197F1F79EA78DA78FA5ED
:100D300098A9019798AB8FA78FA598A9009769F7F5
:100D400014C069A97AA98BA99CA90E944100DC0161
:100D5000CB0198AB8FA78FA598A99CA78BA78BA534
:100D60009CA50197F1F79CA78BA788E30E94B80880
:100D700080E090E0A0E8BFE38FA398A7A9A7BAA757
:100D80006FA178A589A59AA520E030E04AE753E451
:100D90000E941702DC01CB018BA39CA3ADA3BEA3D1
:100DA0006BA17CA18DA19EA120E030E040E85FE333
:100DB0000E94710388232CF481E090E09AA389A318
:100DC0003FC06BA17CA18DA19EA120E03FEF4FE72A
:100DD00057E40E94110318164CF56FA178A589A558
:100DE0009AA520E030E040E251E40E941702DC01C5
:100DF000CB01BC01CD010E944100DC01CB019AA3D3
:100E000089A30FC089E190E098A38F8F8F8D98A15F
:100E10000197F1F798A38F8F89A19AA101979AA3BF
:100E200089A389A19AA1009769F714C06BA17CA13D
:100E30008DA19EA10E944100DC01CB019AA389A350
:100E400089A19AA19E8F8D8F8D8D9E8D0197F1F72F
:100E50009E8F8D8F8CE00E94B80880E090E0A0E823
:100E6000BFE3898F9A8FAB8FBC8F698D7A8D8B8D05
:100E70009C8D20E030E04AE753E40E941702DC0139
:100E8000CB018D8B9E8BAF8BB88F6D897E898F89BF
:100E9000988D20E030E040E85FE30E9471038823F2
:100EA0002CF481E090E09C8B8B8B3FC06D897E8918
:100EB0008F89988D20E03FEF4FE757E40E941103A0
:100EC00018164CF5698D7A8D8B8D9C8D20E030E065
:100ED00040E251E40E941702DC01CB01BC01CD01CC
:100EE0000E944100DC01CB019C8B8B8B0FC089E100
:100EF00090E09A8B898B89899A890197F1F79A8B6F
:100F0000898B8B899C8901979C8B8B8B8B899C8986
:100F1000009769F714C06D897E898F89988D0E942A
:100F20004100DC01CB019C8B8B8B8B899C89988B3E
:100F30008F878F8598890197F1F7988B8F870E940B
:100F4000960986E00E94B80880E090E0A0E8BFE340
:100F50008B879C87AD87BE876B857C858D859E85BD
:100F600020E030E04AE753E40E941702DC01CB01A5
:100F70008F839887A987BA876F81788589859A85B5
:100F800020E030E040E85FE30E94710388232CF406
:100F900081E090E09E838D833FC06F817885898555
:100FA0009A8520E03FEF4FE757E40E94110318169F
:100FB0004CF56B857C858D859E8520E030E040E298
:100FC00051E40E941702DC01CB01BC01CD010E945B
:100FD0004100DC01CB019E838D830FC089E190E04D
:100FE0009C838B838B819C810197F1F79C838B83FE
:100FF0008D819E8101979E838D838D819E81009737
:1010000069F714C06F81788589859A850E944100AF
:10101000DC01CB019E838D838D819E819A838983A0
:1010200089819A810197F1F79A838983CA5BDF4F9F
:101030000FB6F894DEBF0FBECDBFCF91DF911F91E9
:101040000F910895DF93CF93CDB7DEB72F970FB6EB
:10105000F894DEBF0FBECDBF8F8781E06F850E9401
:10106000300C82E064E041E00E94090E82E063E01F
:1010700040E00E94090E0E941E0A80E090E0A0E875
:10108000BFE38B879C87AD87BE876B857C858D850D
:101090009E8520E030E04AE753E40E941702DC011D
:1010A000CB018F839887A987BA876F8178858985D7
:1010B0009A8520E030E040E85FE30E9471038823D6
:1010C0002CF481E090E09E838D833FC06F81788512
:1010D00089859A8520E03FEF4FE757E40E9411038E
:1010E00018164CF56B857C858D859E8520E030E05B
:1010F00040E251E40E941702DC01CB01BC01CD01AA
:101100000E944100DC01CB019E838D830FC089E1E9
:1011100090E09C838B838B819C810197F1F79C836A
:101120008B838D819E8101979E838D838D819E818E
:10113000009769F714C06F81788589859A850E9428
:101140004100DC01CB019E838D838D819E819A833A
:10115000898389819A810197F1F79A8389832F96F0
:101160000FB6F894DEBF0FBECDBFCF91DF910895CB
:10117000DF93CF93CDB7DEB72F970FB6F894DEBFCE
:101180000FBECDBF8F8781E06F850E94300C82E05B
:1011900064E040E00E94090E82E063E040E00E94CB
:1011A000090E0E941E0A80E090E0A0E8BFE38B8752
:1011B0009C87AD87BE876B857C858D859E8520E06D
:1011C00030E04AE753E40E941702DC01CB018F8331
:1011D0009887A987BA876F81788589859A8520E065
:1011E00030E040E85FE30E94710388232CF481E043
:1011F00090E09E838D833FC06F81788589859A8535
:1012000020E03FEF4FE757E40E94110318164CF51A
:101210006B857C858D859E8520E030E040E251E441
:101220000E941702DC01CB01BC01CD010E944100EC
:10123000DC01CB019E838D830FC089E190E09C830C
:101240008B838B819C810197F1F79C838B838D81AC
:101250009E8101979E838D838D819E81009769F782
:1012600014C06F81788589859A850E944100DC01D0
:10127000CB019E838D838D819E819A838983898111
:101280009A810197F1F79A8389832F960FB6F89484
:10129000DEBF0FBECDBFCF91DF910895DF93CF9317
:1012A00000D00F92CDB7DEB79B838A8319820EC020
:1012B0008981282F30E08A819B81FC01E20FF31F96
:1012C00080810E94220889818F5F89838981282FEC
:1012D00030E08A819B81FC01E20FF31F808188232B
:1012E00039F70F900F900F90CF91DF910895DF9312
:1012F000CF9300D00F92CDB7DEB78A836B8319826C
:101300008A81813019F48B81898306C08A81823079
:1013100019F48B81805C8983898180580E94B80888
:101320000F900F900F90CF91DF910895DF93CF939F
:10133000CDB7DEB72E970FB6F894DEBF0FBECDBF88
:1013400081E00E94B80880E090E0A0E2B1E48B87E1
:101350009C87AD87BE876B857C858D859E8520E0CB
:1013600030E04AE753E40E941702DC01CB018F838F
:101370009887A987BA876F81788589859A8520E0C3
:1013800030E040E85FE30E94710388232CF481E0A1
:1013900090E09E838D833FC06F81788589859A8593
:1013A00020E03FEF4FE757E40E94110318164CF579
:1013B0006B857C858D859E8520E030E040E251E4A0
:1013C0000E941702DC01CB01BC01CD010E9441004B
:1013D000DC01CB019E838D830FC089E190E09C836B
:1013E0008B838B819C810197F1F79C838B838D810B
:1013F0009E8101979E838D838D819E81009769F7E1
:1014000014C06F81788589859A850E944100DC012E
:10141000CB019E838D838D819E819A83898389816F
:101420009A810197F1F79A8389832E960FB6F894E3
:10143000DEBF0FBECDBFCF91DF910895DF93CF9375
:10144000CDB7DEB76C970FB6F894DEBF0FBECDBF39
:1014500082E062E041E00E94090E80E090E0A0E8B6
:10146000BFE3898F9A8FAB8FBC8F698D7A8D8B8DFF
:101470009C8D20E030E04AE753E40E941702DC0133
:10148000CB018D8B9E8BAF8BB88F6D897E898F89B9
:10149000988D20E030E040E85FE30E9471038823EC
:1014A0002CF481E090E09C8B8B8B3FC06D897E8912
:1014B0008F89988D20E03FEF4FE757E40E9411039A
:1014C00018164CF5698D7A8D8B8D9C8D20E030E05F
:1014D00040E251E40E941702DC01CB01BC01CD01C6
:1014E0000E944100DC01CB019C8B8B8B0FC089E1FA
:1014F00090E09A8B898B89899A890197F1F79A8B69
:10150000898B8B899C8901979C8B8B8B8B899C8980
:10151000009769F714C06D897E898F89988D0E9424
:101520004100DC01CB019C8B8B8B8B899C89988B38
:101530008F878F8598890197F1F7988B8F8782E045
:1015400062E040E00E94090E80E090E0A0E8BFE386
:101550008B879C87AD87BE876B857C858D859E85B7
:1015600020E030E04AE753E40E941702DC01CB019F
:101570008F839887A987BA876F81788589859A85AF
:1015800020E030E040E85FE30E94710388232CF400
:1015900081E090E09E838D833FC06F81788589854F
:1015A0009A8520E03FEF4FE757E40E941103181699
:1015B0004CF56B857C858D859E8520E030E040E292
:1015C00051E40E941702DC01CB01BC01CD010E9455
:1015D0004100DC01CB019E838D830FC089E190E047
:1015E0009C838B838B819C810197F1F79C838B83F8
:1015F0008D819E8101979E838D838D819E81009731
:1016000069F714C06F81788589859A850E944100A9
:10161000DC01CB019E838D838D819E819A8389839A
:1016200089819A810197F1F79A8389836C960FB625
:10163000F894DEBF0FBECDBFCF91DF910895DF9349
:10164000CF9300D000D00F92CDB7DEB78A836B83E3
:101650004C832D83198280E40E94B80819820CC043
:101660008981882F90E0FC01EA53FD4F80810E9420
:10167000220889818F5F89838981803388F38A81F9
:101680006B810E9477098C81898306C089810E94C1
:10169000220889818F5F898399818D819817B0F3A2
:1016A0000F900F900F900F900F90CF91DF910895B2
:1016B000DF93CF93CDB7DEB727970FB6F894DEBF91
:1016C0000FBECDBF9C838B836D834E832F838D8113
:1016D000882F90E0880F991F880F991F880F991FF6
:1016E0008A838A81805C0E94B80819820EC0898131
:1016F000282F30E08B819C81FC01E20FF31F808159
:101700000E94220889818F5F89838981883078F3DC
:101710008E816F810E94770927960FB6F894DEBFFD
:101720000FBECDBFCF91DF910895DF93CF93CDB79B
:10173000DEB72E970FB6F894DEBF0FBECDBF9E87E3
:101740008D871A828D859E85009711F580E30E9412
:10175000220822C08A81E82FF0E08D859E852AE04C
:1017600030E0B9010E94311C282F205DCE01039684
:10177000E80FF91F20838D859E852AE030E0B901AE
:101780000E94311CCB019E878D878A818F5F8A835F
:101790008D859E850097F1F68A81898311C08981A4
:1017A000882F90E09C0121503040CE010396FC012F
:1017B000E20FF31F80810E94220889818150898372
:1017C0008981882361F72E960FB6F894DEBF0FBE8D
:1017D000CDBFCF91DF910895DF93CF9300D000D09C
:1017E000CDB7DEB789836A838981843090F589819A
:1017F000282F30E03C832B838B819C8181309105A5
:10180000D1F02B813C81223031052CF48B819C81DD
:10181000009761F01EC02B813C812230310581F0A0
:101820008B819C818330910581F013C0EAE3F0E065
:101830008A8180830EC0E7E3F0E08A81808309C05B
:10184000E4E3F0E08A81808304C0E1E3F0E08A8190
:1018500080830F900F900F900F90CF91DF9108959C
:10186000DF93CF9300D000D0CDB7DEB789836A83F2
:101870008981843090F58981282F30E03C832B8347
:101880008B819C8181309105D1F02B813C8122306C
:1018900031052CF48B819C81009761F01EC02B8157
:1018A0003C812230310581F08B819C818330910510
:1018B00081F013C0EBE3F0E08A8180830EC0E8E39F
:1018C000F0E08A81808309C0E5E3F0E08A818083CB
:1018D00004C0E2E3F0E08A8180830F900F900F90C4
:1018E0000F90CF91DF910895DF93CF9300D00F92A7
:1018F000CDB7DEB789838981843008F03EC0898105
:10190000282F30E03B832A838A819B818130910597
:10191000E9F02A813B81223031052CF48A819B81B8
:10192000009761F02AC02A813B8122303105B1F055
:101930008A819B8183309105C9F01FC0ABE3B0E081
:10194000EBE3F0E0808180958C9317C0A8E3B0E0D2
:10195000E8E3F0E0808180958C930FC0A5E3B0E0D0
:10196000E5E3F0E0808180958C9307C0A2E3B0E0CE
:10197000E2E3F0E0808180958C930F900F900F90C0
:10198000CF91DF910895DF93CF9300D00F92CDB721
:10199000DEB789838981843070F58981282F30E012
:1019A0003B832A838A819B8181309105C9F02A81FA
:1019B0003B81223031052CF48A819B81009761F0B4
:1019C0001AC02A813B812230310571F08A819B81C6
:1019D0008330910569F00FC0EBE3F0E010820BC09B
:1019E000E8E3F0E0108207C0E5E3F0E0108203C016
:1019F000E2E3F0E010820F900F900F90CF91DF9113
:101A00000895DF93CF93CDB7DEB727970FB6F8943D
:101A1000DEBF0FBECDBF89836A834B83898184304B
:101A200008F0EEC08A81883008F0EAC08B818823F4
:101A300009F074C08981282F30E03F832E838E8186
:101A40009F818130910559F12E813F8122303105EE
:101A50002CF48E819F81009769F0D2C02E813F8146
:101A60002230310589F18E819F818330910509F4FF
:101A700040C0C6C0AAE3B0E0EAE3F0E08081482FAE
:101A80008A81282F30E081E090E0022E02C0880F8A
:101A9000991F0A94E2F7809584238C93B1C0A7E341
:101AA000B0E0E7E3F0E08081482F8A81282F30E022
:101AB00081E090E0022E02C0880F991F0A94E2F79D
:101AC000809584238C939CC0A4E3B0E0E4E3F0E031
:101AD0008081482F8A81282F30E081E090E0022E1B
:101AE00002C0880F991F0A94E2F7809584238C9393
:101AF00087C0A1E3B0E0E1E3F0E08081482F8A8174
:101B0000282F30E081E090E0022E02C0880F991F5C
:101B10000A94E2F7809584238C9372C08B81813084
:101B200009F06EC08981282F30E03D832C838C81A1
:101B30009D818130910549F12C813D812230310513
:101B40002CF48C819D81009761F05AC02C813D81DD
:101B50002230310571F18C819D8183309105E9F14D
:101B60004FC0AAE3B0E0EAE3F0E08081482F8A8129
:101B7000282F30E081E090E0022E02C0880F991FEC
:101B80000A94E2F7842B8C933BC0A7E3B0E0E7E331
:101B9000F0E08081482F8A81282F30E081E090E0BA
:101BA000022E02C0880F991F0A94E2F7842B8C93AF
:101BB00027C0A4E3B0E0E4E3F0E08081482F8A810D
:101BC000282F30E081E090E0022E02C0880F991F9C
:101BD0000A94E2F7842B8C9313C0A1E3B0E0E1E315
:101BE000F0E08081482F8A81282F30E081E090E06A
:101BF000022E02C0880F991F0A94E2F7842B8C935F
:101C000027960FB6F894DEBF0FBECDBFCF91DF9100
:101C10000895DF93CF93CDB7DEB727970FB6F8942B
:101C2000DEBF0FBECDBF89836A834B838981843039
:101C300008F0F8C08A81883008F0F4C08B818F3FAB
:101C400039F08B81813021F08B81882309F0EAC043
:101C50008B81813009F06FC08981282F30E03F836C
:101C60002E838E819F818130910549F12E813F81A4
:101C7000223031052CF48E819F81009761F0D2C013
:101C80002E813F812230310571F18E819F81833019
:101C90009105E9F1C7C0ABE3B0E0EBE3F0E0808190
:101CA000482F8A81282F30E081E090E0022E02C088
:101CB000880F991F0A94E2F7842B8C93B3C0A8E392
:101CC000B0E0E8E3F0E08081482F8A81282F30E0FF
:101CD00081E090E0022E02C0880F991F0A94E2F77B
:101CE000842B8C939FC0A5E3B0E0E5E3F0E0808116
:101CF000482F8A81282F30E081E090E0022E02C038
:101D0000880F991F0A94E2F7842B8C938BC0A2E36F
:101D1000B0E0E2E3F0E08081482F8A81282F30E0B4
:101D200081E090E0022E02C0880F991F0A94E2F72A
:101D3000842B8C9377C08B81882309F073C08981B1
:101D4000282F30E03D832C838C819D81813091054B
:101D500059F12C813D81223031052CF48C819D81FB
:101D6000009769F05FC02C813D812230310589F1F7
:101D70008C819D818330910509F440C053C0ABE351
:101D8000B0E0EBE3F0E08081482F8A81282F30E03B
:101D900081E090E0022E02C0880F991F0A94E2F7BA
:101DA000809584238C933EC0A8E3B0E0E8E3F0E0A4
:101DB0008081482F8A81282F30E081E090E0022E38
:101DC00002C0880F991F0A94E2F7809584238C93B0
:101DD00029C0A5E3B0E0E5E3F0E08081482F8A81E7
:101DE000282F30E081E090E0022E02C0880F991F7A
:101DF0000A94E2F7809584238C9314C0A2E3B0E0A8
:101E0000E2E3F0E08081482F8A81282F30E081E0F2
:101E100090E0022E02C0880F991F0A94E2F7809585
:101E200084238C9327960FB6F894DEBF0FBECDBFE8
:101E3000CF91DF910895DF93CF9300D000D00F9220
:101E4000CDB7DEB78A836B8319828A81843008F02C
:101E50006BC08B81883008F067C08A81282F30E002
:101E60003D832C834C815D814130510541F18C8152
:101E70009D818230910534F42C813D8121153105FD
:101E800061F052C04C815D814230510551F18C812D
:101E90009D8183309105B9F147C0E9E3F0E080818D
:101EA000282F30E08B81882F90E0A90102C0559542
:101EB00047958A95E2F7CA018170898335C0E6E3C8
:101EC000F0E08081282F30E08B81882F90E0A901FD
:101ED00002C0559547958A95E2F7CA0181708983BA
:101EE00023C0E3E3F0E08081282F30E08B81882F4E
:101EF00090E0A90102C0559547958A95E2F7CA017D
:101F00008170898311C0E0E3F0E08081282F30E008
:101F10008B81882F90E0A90102C0559547958A953D
:101F2000E2F7CA018170898389810F900F900F9029
:101F30000F900F90CF91DF910895DF93CF9300D052
:101F400000D0CDB7DEB789836A838981843008F0F9
:101F500072C08A81883008F06EC08981282F30E0F5
:101F60003C832B838B819C818130910549F12B81AE
:101F70003C81223031052CF48B819C81009761F0EB
:101F80005AC02B813C812230310571F18B819C81BB
:101F900083309105E9F14FC0ABE3B0E0EBE3F0E053
:101FA0008081482F8A81282F30E081E090E0022E46
:101FB00002C0880F991F0A94E2F784278C933BC0D4
:101FC000A8E3B0E0E8E3F0E08081482F8A81282F81
:101FD00030E081E090E0022E02C0880F991F0A9441
:101FE000E2F784278C9327C0A5E3B0E0E5E3F0E0B7
:101FF0008081482F8A81282F30E081E090E0022EF6
:1020000002C0880F991F0A94E2F784278C9313C0AB
:10201000A2E3B0E0E2E3F0E08081482F8A81282F3C
:1020200030E081E090E0022E02C0880F991F0A94F0
:10203000E2F784278C930F900F900F900F90CF9121
:10204000DF910895DF93CF9300D000D0CDB7DEB7F6
:1020500089836A838981843008F077C08A818830D7
:1020600008F073C08981282F30E03C832B838B815B
:102070009C818130910559F12B813C8122303105C1
:102080002CF48B819C81009769F05FC02B813C818F
:102090002230310589F18B819C818330910509F4CF
:1020A00040C053C0ABE3B0E0EBE3F0E08081482FE9
:1020B0008A81282F30E081E090E0022E02C0880F54
:1020C000991F0A94E2F7809584238C933EC0A8E37D
:1020D000B0E0E8E3F0E08081482F8A81282F30E0EB
:1020E00081E090E0022E02C0880F991F0A94E2F767
:1020F000809584238C9329C0A5E3B0E0E5E3F0E06C
:102100008081482F8A81282F30E081E090E0022EE4
:1021100002C0880F991F0A94E2F7809584238C935C
:1021200014C0A2E3B0E0E2E3F0E08081482F8A81AE
:10213000282F30E081E090E0022E02C0880F991F26
:102140000A94E2F7809584238C930F900F900F9060
:102150000F90CF91DF910895DF93CF9300D000D0FF
:102160000F92CDB7DEB789836A834B838981843030
:1021700008F03DC18A81883008F039C18981282F53
:1021800030E03D832C838C819D818130910509F461
:102190005DC02C813D81223031052CF48C819D81E4
:1021A000009771F024C12C813D812230310509F462
:1021B00093C08C819D818330910509F4D3C017C1F0
:1021C0008B81813071F5ABE3B0E0EBE3F0E080812F
:1021D000482F8A81282F30E081E090E002C0880FEC
:1021E000991F2A95E2F7842B8C93AAE3B0E0EAE3E7
:1021F000F0E08081482F8A81282F30E081E090E054
:10220000022E02C0880F991F0A94E2F7809584235A
:102210008C93A0E5B0E0E0E5F0E080818B7F8C93CB
:10222000E6C0ABE3B0E0EBE3F0E08081482F8A81C9
:10223000282F30E081E090E0022E02C0880F991F25
:102240000A94E2F7809584238C93D1C08B818130EE
:1022500071F5A8E3B0E0E8E3F0E08081482F8A81DF
:10226000282F30E081E090E002C0880F991F2A9566
:10227000E2F7842B8C93A7E3B0E0E7E3F0E0808102
:10228000482F8A81282F30E081E090E0022E02C0A2
:10229000880F991F0A94E2F7809584238C93A0E518
:1022A000B0E0E0E5F0E080818B7F8C93A0C0A8E3F4
:1022B000B0E0E8E3F0E08081482F8A81282F30E009
:1022C00081E090E0022E02C0880F991F0A94E2F785
:1022D000809584238C938BC08B81813071F5A5E32D
:1022E000B0E0E5E3F0E08081482F8A81282F30E0DC
:1022F00081E090E002C0880F991F2A95E2F7842BB5
:102300008C93A4E3B0E0E4E3F0E08081482F8A817D
:10231000282F30E081E090E0022E02C0880F991F44
:102320000A94E2F7809584238C93A0E5B0E0E0E581
:10233000F0E080818B7F8C935AC0A5E3B0E0E5E3A9
:10234000F0E08081482F8A81282F30E081E090E002
:10235000022E02C0880F991F0A94E2F78095842309
:102360008C9345C08B81813071F5A2E3B0E0E2E34C
:10237000F0E08081482F8A81282F30E081E090E0D2
:1023800002C0880F991F2A95E2F7842B8C93A1E352
:10239000B0E0E1E3F0E08081482F8A81282F30E02F
:1023A00081E090E0022E02C0880F991F0A94E2F7A4
:1023B000809584238C93A0E5B0E0E0E5F0E0808197
:1023C0008B7F8C9314C0A2E3B0E0E2E3F0E0808165
:1023D000482F8A81282F30E081E090E0022E02C051
:1023E000880F991F0A94E2F7809584238C930F90AD
:1023F0000F900F900F900F90CF91DF910895DF9382
:10240000CF9300D00F92CDB7DEB71B8283E390E06D
:102410009A838983E0E4F0E089819A81892F992762
:102420008083E9E2F0E089818083ABE2B0E0EBE217
:10243000F0E080818D7F8C938B818F7B8B838B8170
:102440008F7D8B838B818F7E8B838B8182608B834F
:102450008B8184608B83AAE2B0E0EAE2F0E08081C5
:102460008B7F8C938B81877F8B838B8180688B8321
:10247000E0E4F0E08B818083AAE2B0E0EAE2F0E001
:10248000808188608C93AAE2B0E0EAE2F0E080818B
:1024900080618C930F900F900F90CF91DF910895F2
:1024A000DF93CF930F92CDB7DEB78983EBE2F0E0F5
:1024B0008081829586958770882F90E081709070DA
:1024C0000097A1F3ECE2F0E0898180830F90CF9137
:1024D000DF910895DF93CF93CDB7DEB7EBE2F0E065
:1024E00080818823DCF7ECE2F0E08081CF91DF91FE
:1024F0000895DF93CF9300D00F92CDB7DEB79B83C3
:102500008A8319820EC08981282F30E08A819B81BD
:10251000FC01E20FF31F80810E94501289818F5FBE
:1025200089838981282F30E08A819B81FC01E20F19
:10253000F31F8081882339F78981282F30E08A8131
:102540009B81FC01E20FF31F80810E9450120F90CB
:102550000F900F90CF91DF9108950F931F93DF930A
:10256000CF9300D00F92CDB7DEB79B838A831982B9
:102570008981282F30E08A819B818C01020F131FF3
:102580000E946A12F80180830FC089818F5F89835E
:102590008981282F30E08A819B818C01020F131FD3
:1025A0000E946A12F80180838981282F30E08A8195
:1025B0009B81FC01E20FF31F8081803231F789811A
:1025C000282F30E08A819B81FC01E20FF31F1082EB
:1025D0000F900F900F90CF91DF911F910F91089561
:1025E000DF93CF9300D000D000D0CDB7DEB79C836F
:1025F0008B837E836D831A8281E089831CC08A81EC
:10260000282F30E08B819C81FC01E20FF31F408179
:102610008A81282F30E08D819E81FC01E20FF31F1B
:102620008081481731F481E089838A818F5F8A83B2
:1026300002C019820BC08A81282F30E08D819E81D3
:10264000FC01E20FF31F80818823C9F68981269659
:102650000FB6F894DEBF0FBECDBFCF91DF910895C6
:10266000DF93CF93CDB7DEB7A8970FB6F894DEBF50
:102670000FBECDBF80E06FEF0E94EC0B82E060E008
:1026800041E00E94010D82E061E041E00E94010D05
:1026900083E060E040E00E94010D83E061E041E002
:1026A0000E94010D0E94FF110E949B050E94960945
:1026B00081E065E00E94770980E690E00E944E0983
:1026C00082E062E00E94770987E690E00E944E096E
:1026D00088E08E8F75C080E090E0A8ECB3E4898F2D
:1026E0009A8FAB8FBC8F698D7A8D8B8D9C8D20E0FE
:1026F00030E04AE753E40E941702DC01CB018D8BE6
:102700009E8BAF8BB88F6D897E898F89988D20E0E5
:1027100030E040E85FE30E94710388232CF481E0FD
:1027200090E09C8B8B8B3FC06D897E898F89988DC3
:1027300020E03FEF4FE757E40E94110318164CF5D5
:10274000698D7A8D8B8D9C8D20E030E040E251E4E4
:102750000E941702DC01CB01BC01CD010E944100A7
:10276000DC01CB019C8B8B8B0FC089E190E09A8BB5
:10277000898B89899A890197F1F79A8B898B8B8943
:102780009C8901979C8B8B8B8B899C89009769F71F
:1027900014C06D897E898F89988D0E944100DC016B
:1027A000CB019C8B8B8B8B899C89988B8F878F859A
:1027B00098890197F1F7988B8F878E8D8F5F8E8F19
:1027C0008E8D8E3008F487CF0E9496098BE790E0BB
:1027D0000E944E098AE08D8F7CC081E06D8D0E9441
:1027E00077098EE20E94220880E090E0AAEFB3E42D
:1027F0008B879C87AD87BE876B857C858D859E8505
:1028000020E030E04AE753E40E941702DC01CB01EC
:102810008F839887A987BA876F81788589859A85FC
:1028200020E030E040E85FE30E94710388232CF44D
:1028300081E090E09E838D833FC06F81788589859C
:102840009A8520E03FEF4FE757E40E9411031816E6
:102850004CF56B857C858D859E8520E030E040E2DF
:1028600051E40E941702DC01CB01BC01CD010E94A2
:102870004100DC01CB019E838D830FC089E190E094
:102880009C838B838B819C810197F1F79C838B8345
:102890008D819E8101979E838D838D819E8100977E
:1028A00069F714C06F81788589859A850E944100F7
:1028B000DC01CB019E838D838D819E819A838983E8
:1028C00089819A810197F1F79A8389838D8D8F5F32
:1028D0008D8F8D8D8F3008F480CF84E890E00E943A
:1028E0007912CE014F960E94AD120E949609CE0138
:1028F0004F962EE930E0B9010E94F012882369F06A
:1029000081E063E00E94770984EA90E00E944E092A
:102910008DEA90E00E94541AC9CECE014F9622EB68
:1029200030E0B9010E94F012882369F081E063E091
:102930000E94770987EB90E00E944E098FEB90E0B0
:102940000E94541AB3CECE014F9624EC30E0B90168
:102950000E94F012882369F081E063E00E94770909
:1029600089EC90E00E944E0981ED90E00E94541A9B
:102970009DCECE014F9626ED30E0B9010E94F012B7
:10298000882369F081E063E00E9477098BED90E095
:102990000E944E0983EE90E00E94541A87CECE0129
:1029A0004F9628EE30E0B9010E94F012882369F0BA
:1029B00081E063E00E9477098DEE90E00E944E096D
:1029C00085EF90E00E94541A71CECE014F962AEF07
:1029D00030E0B9010E94F012882369F081E063E0E1
:1029E0000E9477098FEF90E00E944E0987E091E006
:1029F0000E94541A5BCECE014F962CE031E0B90113
:102A00000E94F012882369F081E063E00E94770958
:102A100082E191E00E944E098BE191E00E94541AFC
:102A200045CECE014F9620E231E0B9010E94F0126E
:102A3000882369F081E063E00E94770985E291E0F4
:102A40000E944E098DE291E00E94541A2FCECE01D1
:102A50004F9622E331E0B9010E94F012882369F019
:102A600081E063E00E94770988E391E00E944E09CB
:102A700081E491E00E94541A19CECE014F9626E4CB
:102A800031E0B9010E94F012882309F40FCE81E0F1
:102A900063E00E9477098DE491E00E944E0987E58A
:102AA00091E00E94541A02CE0F931F93DF93CF93AD
:102AB000CDB7DEB7C956D0400FB6F894DEBF0FBE13
:102AC000CDBF8CE591E00E9479128FE691E00E94E3
:102AD00079128AE891E00E94791289EA91E00E94D5
:102AE000791288EC91E00E9479128BEE91E00E94BD
:102AF00079128FE092E00E9479120E946A12FE0120
:102B0000E959FF4F8083FE01E959FF4F8081282F4B
:102B100030E0AA963FAF2EAFAA97AA968EAD9FAD92
:102B2000AA978334910509F4FBC2AA96EEADFFADD6
:102B3000AA97E434F10584F4AA962EAD3FADAA9786
:102B400021343105D1F0AA968EAD9FADAA9782347B
:102B5000910509F4B3C19CC4AA96EEADFFADAA9746
:102B6000E434F10509F47AC3AA962EAD3FADAA97D5
:102B70002534310509F410C48BC40E94960989E2FA
:102B800092E00E944E09FE01EA59FF4F88E08083DF
:102B9000C6C0FE01EA59FF4F81E060810E947709BB
:102BA0008EE20E942208FE01E15AFF4F80E090E091
:102BB000A8ECB3E480839183A283B3838E01055A8A
:102BC0001F4FFE01E15AFF4F608171818281938125
:102BD00020E030E04AE753E40E941702DC01CB0119
:102BE000F80180839183A283B383FE01E55AFF4FEE
:102BF000608171818281938120E030E040E85FE371
:102C00000E947103882344F4FE01E75AFF4F81E0DC
:102C100090E09183808364C0FE01E55AFF4F60819C
:102C200071818281938120E03FEF4FE757E40E945A
:102C3000110318160CF043C0FE01E15AFF4F6081EA
:102C400071818281938120E030E040E251E40E9472
:102C50001702DC01CB018E01075A1F4FBC01CD01C9
:102C60000E944100DC01CB01F801918380831FC0E9
:102C7000FE01E95AFF4F89E190E091838083FE01D4
:102C8000E95AFF4F808191810197F1F7FE01E95ADE
:102C9000FF4F91838083DE01A75ABF4FFE01E75AA1
:102CA000FF4F80819181019711969C938E93FE0135
:102CB000E75AFF4F808191810097D1F627C08E019E
:102CC000075A1F4FFE01E55AFF4F608171818281D3
:102CD00093810E944100DC01CB01F8019183808344
:102CE000DE01AB5ABF4FFE01E75AFF4F8081918151
:102CF0008D939C93FE01EB5AFF4F80819181019748
:102D0000F1F7FE01EB5AFF4F91838083DE01AA5950
:102D1000BF4FFE01EA59FF4F80818F5F8C93FE0108
:102D2000EA59FF4F80818E3008F433CF82E061E0B2
:102D300041E00E94090E82E060E040E00E94090E3E
:102D4000FE01EF5AFF4F80E098ECAFEAB7E48083D2
:102D50009183A283B3838E01035B1F4FFE01EF5A61
:102D6000FF4F608171818281938120E030E04AE7EA
:102D700053E40E941702DC01CB01F80180839183A8
:102D8000A283B383FE01E35BFF4F60817181828187
:102D9000938120E030E040E85FE30E9471038823E4
:102DA00044F4FE01E55BFF4F81E090E09183808376
:102DB00064C0FE01E35BFF4F60817181828193817A
:102DC00020E03FEF4FE757E40E94110318160CF084
:102DD00043C0FE01EF5AFF4F608171818281938170
:102DE00020E030E040E251E40E941702DC01CB0118
:102DF0008E01055B1F4FBC01CD010E944100DC012B
:102E0000CB01F801918380831FC0FE01E75BFF4F78
:102E100089E190E091838083FE01E75BFF4F808131
:102E200091810197F1F7FE01E75BFF4F918380836A
:102E3000DE01A55BBF4FFE01E55BFF4F8081918105
:102E4000019711969C938E93FE01E55BFF4F808165
:102E500091810097D1F627C08E01055B1F4FFE01BF
:102E6000E35BFF4F60817181828193810E94410009
:102E7000DC01CB01F80191838083DE01A95BBF4FA8
:102E8000FE01E55BFF4F808191818D939C93FE0154
:102E9000E95BFF4F808191810197F1F7FE01E95BCA
:102EA000FF4F9183808382E061E040E00E94090E41
:102EB00082E060E040E00E94090EEAC20E949609AA
:102EC00081E392E00E944E09FE01EB59FF4F88E03A
:102ED000808398C0FE01EB59FF4F81E060810E9422
:102EE00077098EE20E942208FE01ED5BFF4F80E031
:102EF00090E0A8ECB3E480839183A283B3838E0136
:102F0000015C1F4FFE01ED5BFF4F6081718182818B
:102F1000938120E030E04AE753E40E941702DC018D
:102F2000CB01F80180839183A283B383FE01FF96D6
:102F3000608171818281938120E030E040E85FE32D
:102F40000E94710388232CF481E090E09EAF8DAF46
:102F500046C0FE01FF96608171818281938120E0ED
:102F60003FEF4FE757E40E941103181664F5FE0186
:102F7000ED5BFF4F608171818281938120E030E0C1
:102F800040E251E40E941702DC01CB01BC01CD01FB
:102F90000E944100DC01CB019EAF8DAF0FC089E1E3
:102FA00090E09CAF8BAF8BAD9CAD0197F1F79CAFE0
:102FB0008BAF8DAD9EAD01979EAF8DAF8DAD9EADAC
:102FC000009769F716C0FE01FF96608171818281CA
:102FD00093810E944100DC01CB019EAF8DAF8DAD8E
:102FE0009EAD9AAF89AF89AD9AAD0197F1F79AAFCF
:102FF00089AFDE01AB59BF4FFE01EB59FF4F808116
:103000008F5F8C93FE01EB59FF4F80818E3008F467
:1030100061CF82E060E041E00E94090E82E061E061
:1030200040E00E94090E80E098ECAFEAB7E48DAB77
:103030009EABAFABB8AF6DA97EA98FA998AD20E0CC
:1030400030E04AE753E40E941702DC01CB0189AB70
:103050009AABABABBCAB69A97AA98BA99CA920E0C0
:1030600030E040E85FE30E94710388232CF481E0A4
:1030700090E098AB8FA73FC069A97AA98BA99CA9BA
:1030800020E03FEF4FE757E40E94110318164CF57C
:103090006DA97EA98FA998AD20E030E040E251E40F
:1030A0000E941702DC01CB01BC01CD010E9441004E
:1030B000DC01CB0198AB8FA70FC089E190E09EA700
:1030C0008DA78DA59EA50197F1F79EA78DA78FA52A
:1030D00098A9019798AB8FA78FA598A9009769F732
:1030E00014C069A97AA98BA99CA90E944100DC019E
:1030F000CB0198AB8FA78FA598A99CA78BA78BA571
:103100009CA50197F1F79CA78BA782E061E040E0C6
:103110000E94090E82E060E040E00E94090EB8C102
:103120000E94960989E392E00E944E09FE01EC5943
:10313000FF4F88E080837BC080E090E0A6E9B3E4A5
:103140008FA398A7A9A7BAA76FA178A589A59AA5C3
:1031500020E030E04AE753E40E941702DC01CB0193
:103160008BA39CA3ADA3BEA36BA17CA18DA19EA1AB
:1031700020E030E040E85FE30E94710388232CF4F4
:1031800081E090E09AA389A33FC06BA17CA18DA1AF
:103190009EA120E03FEF4FE757E40E94110318166D
:1031A0004CF56FA178A589A59AA520E030E040E212
:1031B00051E40E941702DC01CB01BC01CD010E9449
:1031C0004100DC01CB019AA389A30FC089E190E003
:1031D00098A38F8F8F8D98A10197F1F798A38F8F68
:1031E00089A19AA101979AA389A389A19AA100977D
:1031F00069F714C06BA17CA18DA19EA10E94410022
:10320000DC01CB019AA389A389A19AA19E8F8D8FFE
:103210008D8D9E8D0197F1F79E8F8D8FDE01AC59BC
:10322000BF4FFE01EC59FF4F80818F5F8C93FE01F1
:10323000EC59FF4F80818E3008F47ECF80E062E051
:1032400041E00E94090E80E063E041E00E94090E27
:1032500080E064E041E00E94090E1AC10E949609D4
:1032600086E492E00E944E09FE01ED59FF4F88E08E
:1032700080837BC080E090E0A6E9B3E4898F9A8FD9
:10328000AB8FBC8F698D7A8D8B8D9C8D20E030E06B
:103290004AE753E40E941702DC01CB018D8B9E8B21
:1032A000AF8BB88F6D897E898F89988D20E030E053
:1032B00040E85FE30E94710388232CF481E090E0F2
:1032C0009C8B8B8B3FC06D897E898F89988D20E088
:1032D0003FEF4FE757E40E94110318164CF5698D34
:1032E0007A8D8B8D9C8D20E030E040E251E40E948D
:1032F0001702DC01CB01BC01CD010E944100DC01C1
:10330000CB019C8B8B8B0FC089E190E09A8B898BD2
:1033100089899A890197F1F79A8B898B8B899C8986
:1033200001979C8B8B8B8B899C89009769F714C0C4
:103330006D897E898F89988D0E944100DC01CB01C7
:103340009C8B8B8B8B899C89988B8F878F85988999
:103350000197F1F7988B8F87DE01AD59BF4FFE01C2
:10336000ED59FF4F80818F5F8C93FE01ED59FF4F28
:1033700080818E3008F47ECF80E062E040E00E94E1
:10338000090E80E063E040E00E94090E80E064E006
:1033900040E00E94090E7CC00E94960984E592E0FC
:1033A0000E944E0980E094E2A4EFB9E48B879C87E9
:1033B000AD87BE876B857C858D859E8520E030E05E
:1033C0004AE753E40E941702DC01CB018F83988700
:1033D000A987BA876F81788589859A8520E030E052
:1033E00040E85FE30E94710388232CF481E090E0C1
:1033F0009E838D833FC06F81788589859A8520E083
:103400003FEF4FE757E40E94110318164CF56B8508
:103410007C858D859E8520E030E040E251E40E946D
:103420001702DC01CB01BC01CD010E944100DC018F
:10343000CB019E838D830FC089E190E09C838B83B9
:103440008B819C810197F1F79C838B838D819E8179
:1034500001979E838D838D819E81009769F714C0AB
:103460006F81788589859A850E944100DC01CB01B6
:103470009E838D838D819E819A83898389819A81A0
:103480000197F1F79A8389830E9496091092F602B8
:10349000C759DF4F0FB6F894DEBF0FBECDBFCF9137
:1034A000DF911F910F910895DF93CF93CDB7DEB7D2
:1034B000E3970FB6F894DEBF0FBECDBF9BAB8AABD0
:1034C0001CA682E060E00E94770980E692E00E94FC
:1034D0004E0929C181E792E00E947912CE018D96B2
:1034E0000E94AD12CE018D962AA93BA9B9010E9476
:1034F000F012882309F414C181E08093F60208C118
:103500000E9496098BE892E00E944E0988E08BA702
:1035100075C080E090E0A6E9B3E48FA398A7A9A7BF
:10352000BAA76FA178A589A59AA520E030E04AE75F
:1035300053E40E941702DC01CB018BA39CA3ADA333
:10354000BEA36BA17CA18DA19EA120E030E040E84C
:103550005FE30E94710388232CF481E090E09AA33A
:1035600089A33FC06BA17CA18DA19EA120E03FEF6C
:103570004FE757E40E94110318164CF56FA178A588
:1035800089A59AA520E030E040E251E40E941702AC
:10359000DC01CB01BC01CD010E944100DC01CB016B
:1035A0009AA389A30FC089E190E098A38F8F8F8D94
:1035B00098A10197F1F798A38F8F89A19AA10197FC
:1035C0009AA389A389A19AA1009769F714C06BA156
:1035D0007CA18DA19EA10E944100DC01CB019AA398
:1035E00089A389A19AA19E8F8D8F8D8D9E8D019724
:1035F000F1F79E8F8D8F8BA58F5F8BA78BA58E305C
:1036000008F487CF0E94960981E063E00E94770961
:1036100088E992E00E944E0982E065E00E94770905
:1036200085EA92E00E944E0980E090E0A0E2B1E4D9
:10363000898F9A8FAB8FBC8F698D7A8D8B8D9C8D86
:1036400020E030E04AE753E40E941702DC01CB019E
:103650008D8B9E8BAF8BB88F6D897E898F89988D6E
:1036600020E030E040E85FE30E94710388232CF4FF
:1036700081E090E09C8B8B8B3FC06D897E898F8928
:10368000988D20E03FEF4FE757E40E941103181692
:103690004CF5698D7A8D8B8D9C8D20E030E040E279
:1036A00051E40E941702DC01CB01BC01CD010E9454
:1036B0004100DC01CB019C8B8B8B0FC089E190E03A
:1036C0009A8B898B89899A890197F1F79A8B898BD3
:1036D0008B899C8901979C8B8B8B8B899C8900970C
:1036E00069F714C06D897E898F89988D0E94410089
:1036F000DC01CB019C8B8B8B8B899C89988B8F8772
:103700008F8598890197F1F7988B8F870E945415C0
:103710008091F602813009F4F3CE84E08CA703C0D7
:103720008CA58F5F8CA78CA5833008F4D3CE8CA595
:10373000833009F08DC00E9496098DEA92E00E94C4
:103740004E0980E060E041E00E94090E80E061E007
:1037500041E00E94090E80E090E0AAE7B5E48B8783
:103760009C87AD87BE876B857C858D859E8520E097
:1037700030E04AE753E40E941702DC01CB018F835B
:103780009887A987BA876F81788589859A8520E08F
:1037900030E040E85FE30E94710388232CF481E06D
:1037A00090E09E838D833FC06F81788589859A855F
:1037B00020E03FEF4FE757E40E94110318164CF545
:1037C0006B857C858D859E8520E030E040E251E46C
:1037D0000E941702DC01CB01BC01CD010E94410017
:1037E000DC01CB019E838D830FC089E190E09C8337
:1037F0008B838B819C810197F1F79C838B838D81D7
:103800009E8101979E838D838D819E81009769F7AC
:1038100014C06F81788589859A850E944100DC01FA
:10382000CB019E838D838D819E819A83898389813B
:103830009A810197F1F79A83898380E060E040E004
:103840000E94090E80E061E040E00E94090E79CFFD
:10385000E3960FB6F894DEBF0FBECDBFCF91DF91D8
:103860000895AA1BBB1B51E107C0AA1FBB1FA617C7
:10387000B70710F0A61BB70B881F991F5A95A9F719
:1038800080959095BC01CD0108952F923F924F9263
:103890005F926F927F928F929F92AF92BF92CF92E0
:1038A000DF92EF92FF920F931F93CF93DF93CDB7E9
:1038B000DEB7CA1BDB0B0FB6F894DEBF0FBECDBF61
:1038C00009942A88398848885F846E847D848C8432
:1038D0009B84AA84B984C884DF80EE80FD800C813B
:1038E0001B81AA81B981CE0FD11D0FB6F894DEBF1E
:0C38F0000FBECDBFED010895F894FFCF8E
:1038FC0057454C434F4D00456E74657220546865B6
:10390C002055736572204E616D65005363616E6E58
:10391C00696E67000D0A20456E74657220546865E7
:10392C002055736572204E616D65200D0A0041486B
:10393C004D45440048492041484D45440031313102
:10394C00310052414E410048492052414E41003213
:10395C003232320052414D590048492052414D59A2
:10396C000033333333004F4D4152004849204F4D03
:10397C0041520034343434005245454D00484920FE
:10398C005245454D0035353535004E4F55520048A2
:10399C0049204E4F55520036363636004B4152496F
:1039AC004D004849204B4152494D003737373700BD
:1039BC005A494144004849205A4941440038383852
:1039CC0038004D41484552004849204D4148455228
:1039DC00003939393900464152494441004849209F
:1039EC004641524944410031323334000D0A2077AC
:1039FC00656C636F6D6520686F6D65200D0A000D39
:103A0C000A206865726520697320796F7572206F62
:103A1C007074696F6E73200D0A000D0A20413D3ED3
:103A2C003E666F72206F70656E696E672074686594
:103A3C0020646F6F72200D0A000D0A20423D3E3E3D
:103A4C00666F7220636C6F73696E67207468652093
:103A5C00646F6F72200D0A000D0A20433D3E3E66D6
:103A6C006F72207475726E696E67206F6E20746849
:103A7C0065206C69676874200D0A000D0A20443DAE
:103A8C003E3E666F72207475726E696E67206F664B
:103A9C006620746865206C69676874200D0A000DD7
:103AAC000A20453D3E3E666F72206C6F6767696EFB
:103ABC0067206F7574200D0A004F70656E696E6714
:103ACC0000436C6F73696E6700202020204C4947BF
:103ADC004854204F4E00202020204C494748542069
:103AEC004F4646004C4F4747494E47204F555400D0
:103AFC00596F7520486176652033747269616C73F7
:103B0C00000D0A20456E74657220596F7572205035
:103B1C0061737377617264200D0A0077656C636F53
:103B2C006D6520686F6D650043686F6F7365205914
:103B3C006F75722000204F7074696F6E0057415280
:103B4C004E494E4720414C41524D2021210000004E
:103B5C000000000000000000000E1F11000000001B
:103B6C00000E1F110000040E1E1F1F1F0E0E040E50
:103B7C001E1F1F1F0E0E000E0A041F150A11000E29
:083B8C000A041F150A110100D3
:00000001FF
